{
  "contractName": "market",
  "abi": [
    {
      "anonymous": false,
      "inputs": [
        {
          "indexed": false,
          "internalType": "uint256",
          "name": "id",
          "type": "uint256"
        },
        {
          "indexed": false,
          "internalType": "string",
          "name": "name",
          "type": "string"
        },
        {
          "indexed": false,
          "internalType": "uint256",
          "name": "price",
          "type": "uint256"
        },
        {
          "indexed": false,
          "internalType": "address payable",
          "name": "owner",
          "type": "address"
        },
        {
          "indexed": false,
          "internalType": "bool",
          "name": "purchased",
          "type": "bool"
        }
      ],
      "name": "Dontsell",
      "type": "event"
    },
    {
      "anonymous": false,
      "inputs": [
        {
          "indexed": false,
          "internalType": "uint256",
          "name": "id",
          "type": "uint256"
        },
        {
          "indexed": false,
          "internalType": "string",
          "name": "name",
          "type": "string"
        },
        {
          "indexed": false,
          "internalType": "uint256",
          "name": "price",
          "type": "uint256"
        },
        {
          "indexed": false,
          "internalType": "address payable",
          "name": "owner",
          "type": "address"
        },
        {
          "indexed": false,
          "internalType": "bool",
          "name": "purchased",
          "type": "bool"
        }
      ],
      "name": "Productcreated",
      "type": "event"
    },
    {
      "anonymous": false,
      "inputs": [
        {
          "indexed": false,
          "internalType": "uint256",
          "name": "id",
          "type": "uint256"
        },
        {
          "indexed": false,
          "internalType": "string",
          "name": "name",
          "type": "string"
        },
        {
          "indexed": false,
          "internalType": "uint256",
          "name": "price",
          "type": "uint256"
        },
        {
          "indexed": false,
          "internalType": "address payable",
          "name": "owner",
          "type": "address"
        },
        {
          "indexed": false,
          "internalType": "bool",
          "name": "purchased",
          "type": "bool"
        }
      ],
      "name": "Productpurchased",
      "type": "event"
    },
    {
      "constant": true,
      "inputs": [],
      "name": "productcount",
      "outputs": [
        {
          "internalType": "uint256",
          "name": "",
          "type": "uint256"
        }
      ],
      "payable": false,
      "stateMutability": "view",
      "type": "function"
    },
    {
      "constant": true,
      "inputs": [
        {
          "internalType": "uint256",
          "name": "",
          "type": "uint256"
        }
      ],
      "name": "products",
      "outputs": [
        {
          "internalType": "uint256",
          "name": "id",
          "type": "uint256"
        },
        {
          "internalType": "string",
          "name": "name",
          "type": "string"
        },
        {
          "internalType": "uint256",
          "name": "price",
          "type": "uint256"
        },
        {
          "internalType": "address payable",
          "name": "owner",
          "type": "address"
        },
        {
          "internalType": "bool",
          "name": "purchased",
          "type": "bool"
        }
      ],
      "payable": false,
      "stateMutability": "view",
      "type": "function"
    },
    {
      "constant": false,
      "inputs": [
        {
          "internalType": "string",
          "name": "_name",
          "type": "string"
        },
        {
          "internalType": "uint256",
          "name": "_price",
          "type": "uint256"
        }
      ],
      "name": "createproduct",
      "outputs": [],
      "payable": false,
      "stateMutability": "nonpayable",
      "type": "function"
    },
    {
      "constant": false,
      "inputs": [
        {
          "internalType": "uint256",
          "name": "_id",
          "type": "uint256"
        }
      ],
      "name": "purchase",
      "outputs": [],
      "payable": true,
      "stateMutability": "payable",
      "type": "function"
    },
    {
      "constant": false,
      "inputs": [
        {
          "internalType": "uint256",
          "name": "_iid",
          "type": "uint256"
        }
      ],
      "name": "Donsell",
      "outputs": [],
      "payable": false,
      "stateMutability": "nonpayable",
      "type": "function"
    }
  ],
  "bytecode": "0x60806040526000805534801561001457600080fd5b50610dbc806100246000396000f3fe60806040526004361061004a5760003560e01c80632ef6ac661461004f57806331237fe31461007a5780637acc0b20146100b5578063bc330251146101b5578063efef39a114610287575b600080fd5b34801561005b57600080fd5b506100646102b5565b6040518082815260200191505060405180910390f35b34801561008657600080fd5b506100b36004803603602081101561009d57600080fd5b81019080803590602001909291905050506102bb565b005b3480156100c157600080fd5b506100ee600480360360208110156100d857600080fd5b81019080803590602001909291905050506105fd565b60405180868152602001806020018581526020018473ffffffffffffffffffffffffffffffffffffffff1673ffffffffffffffffffffffffffffffffffffffff16815260200183151515158152602001828103825286818151815260200191508051906020019080838360005b8381101561017657808201518184015260208101905061015b565b50505050905090810190601f1680156101a35780820380516001836020036101000a031916815260200191505b50965050505050505060405180910390f35b3480156101c157600080fd5b50610285600480360360408110156101d857600080fd5b81019080803590602001906401000000008111156101f557600080fd5b82018360208201111561020757600080fd5b8035906020019184600183028401116401000000008311171561022957600080fd5b91908080601f016020809104026020016040519081016040528093929190818152602001838380828437600081840152601f19601f820116905080830192505050505050509192919290803590602001909291905050506106f8565b005b6102b36004803603602081101561029d57600080fd5b8101908080359060200190929190505050610908565b005b60005481565b6102c3610c9b565b600160008381526020019081526020016000206040518060a001604052908160008201548152602001600182018054600181600116156101000203166002900480601f0160208091040260200160405190810160405280929190818152602001828054600181600116156101000203166002900480156103845780601f1061035957610100808354040283529160200191610384565b820191906000526020600020905b81548152906001019060200180831161036757829003601f168201915b50505050508152602001600282015481526020016003820160009054906101000a900473ffffffffffffffffffffffffffffffffffffffff1673ffffffffffffffffffffffffffffffffffffffff1673ffffffffffffffffffffffffffffffffffffffff1681526020016003820160149054906101000a900460ff1615151515815250509050600181608001901515908115158152505033816060019073ffffffffffffffffffffffffffffffffffffffff16908173ffffffffffffffffffffffffffffffffffffffff1681525050806001600084815260200190815260200160002060008201518160000155602082015181600101908051906020019061048d929190610ce2565b506040820151816002015560608201518160030160006101000a81548173ffffffffffffffffffffffffffffffffffffffff021916908373ffffffffffffffffffffffffffffffffffffffff16021790555060808201518160030160146101000a81548160ff0219169083151502179055509050507f1f26ad912e46f51df975a75f39072573d478f0a85daf1fe11049057717860f576000548260200151836040015133600160405180868152602001806020018581526020018473ffffffffffffffffffffffffffffffffffffffff1673ffffffffffffffffffffffffffffffffffffffff16815260200183151515158152602001828103825286818151815260200191508051906020019080838360005b838110156105bb5780820151818401526020810190506105a0565b50505050905090810190601f1680156105e85780820380516001836020036101000a031916815260200191505b50965050505050505060405180910390a15050565b6001602052806000526040600020600091509050806000015490806001018054600181600116156101000203166002900480601f0160208091040260200160405190810160405280929190818152602001828054600181600116156101000203166002900480156106af5780601f10610684576101008083540402835291602001916106af565b820191906000526020600020905b81548152906001019060200180831161069257829003601f168201915b5050505050908060020154908060030160009054906101000a900473ffffffffffffffffffffffffffffffffffffffff16908060030160149054906101000a900460ff16905085565b600082511161070657600080fd5b6000811161071357600080fd5b60008081548092919060010191905055506040518060a0016040528060005481526020018381526020018281526020013373ffffffffffffffffffffffffffffffffffffffff1681526020016000151581525060016000805481526020019081526020016000206000820151816000015560208201518160010190805190602001906107a0929190610ce2565b506040820151816002015560608201518160030160006101000a81548173ffffffffffffffffffffffffffffffffffffffff021916908373ffffffffffffffffffffffffffffffffffffffff16021790555060808201518160030160146101000a81548160ff0219169083151502179055509050507f4fbb1fb78e8272bc4c484b81aafac83e82215d1be09210e7e0ad623b98048ade600054838333600060405180868152602001806020018581526020018473ffffffffffffffffffffffffffffffffffffffff1673ffffffffffffffffffffffffffffffffffffffff16815260200183151515158152602001828103825286818151815260200191508051906020019080838360005b838110156108c65780820151818401526020810190506108ab565b50505050905090810190601f1680156108f35780820380516001836020036101000a031916815260200191505b50965050505050505060405180910390a15050565b610910610c9b565b600160008381526020019081526020016000206040518060a001604052908160008201548152602001600182018054600181600116156101000203166002900480601f0160208091040260200160405190810160405280929190818152602001828054600181600116156101000203166002900480156109d15780601f106109a6576101008083540402835291602001916109d1565b820191906000526020600020905b8154815290600101906020018083116109b457829003601f168201915b50505050508152602001600282015481526020016003820160009054906101000a900473ffffffffffffffffffffffffffffffffffffffff1673ffffffffffffffffffffffffffffffffffffffff1673ffffffffffffffffffffffffffffffffffffffff1681526020016003820160149054906101000a900460ff161515151581525050905060008160600151905033826060019073ffffffffffffffffffffffffffffffffffffffff16908173ffffffffffffffffffffffffffffffffffffffff168152505060018260800190151590811515815250508160016000858152602001908152602001600020600082015181600001556020820151816001019080519060200190610ae3929190610ce2565b506040820151816002015560608201518160030160006101000a81548173ffffffffffffffffffffffffffffffffffffffff021916908373ffffffffffffffffffffffffffffffffffffffff16021790555060808201518160030160146101000a81548160ff0219169083151502179055509050508073ffffffffffffffffffffffffffffffffffffffff166108fc349081150290604051600060405180830381858888f19350505050158015610b9e573d6000803e3d6000fd5b507f1f9633909bd25b80d50c35cedc0973c3527c6f6361c392793ed2b7bdd05530e46000548360200151846040015133600160405180868152602001806020018581526020018473ffffffffffffffffffffffffffffffffffffffff1673ffffffffffffffffffffffffffffffffffffffff16815260200183151515158152602001828103825286818151815260200191508051906020019080838360005b83811015610c58578082015181840152602081019050610c3d565b50505050905090810190601f168015610c855780820380516001836020036101000a031916815260200191505b50965050505050505060405180910390a1505050565b6040518060a00160405280600081526020016060815260200160008152602001600073ffffffffffffffffffffffffffffffffffffffff1681526020016000151581525090565b828054600181600116156101000203166002900490600052602060002090601f016020900481019282601f10610d2357805160ff1916838001178555610d51565b82800160010185558215610d51579182015b82811115610d50578251825591602001919060010190610d35565b5b509050610d5e9190610d62565b5090565b610d8491905b80821115610d80576000816000905550600101610d68565b5090565b9056fea265627a7a72315820eade0645a5497c528afc24bd10f3b03a40e8cb0443497b4dd6481deac001a35e64736f6c63430005100032",
  "source": "pragma solidity 0.5.16;\r\ncontract market{\r\n    uint public productcount=0;\r\n    mapping(uint=>product) public products;\r\n       struct product{\r\n           uint id;\r\n           string name;\r\n           uint price;\r\n           address payable owner;\r\n           bool purchased;\r\n       }\r\n       event Productcreated(\r\n           uint id,\r\n           string name,\r\n           uint price,\r\n           address payable owner,\r\n           bool purchased);\r\n           event Productpurchased(\r\n           uint id,\r\n           string name,\r\n           uint price,\r\n           address payable owner,\r\n           bool purchased);\r\nevent Dontsell(\r\n           uint id,\r\n           string name,\r\n           uint price,\r\n           address payable owner,\r\n           bool purchased);\r\n       function createproduct(string memory _name,uint _price)public{\r\n           require(bytes(_name).length > 0);\r\n           require(_price > 0);\r\n           productcount++;\r\n           products[productcount]=product(productcount,_name,_price,msg.sender,false);\r\n           emit Productcreated(productcount,_name,_price,msg.sender,false);\r\n       }\r\n       function purchase(uint _id) public payable{\r\n           product memory _product=products[_id];\r\n           address payable seller=_product.owner;\r\n           _product.owner=msg.sender;\r\n           _product.purchased=true;\r\n           products[_id]=_product;\r\n           address(seller).transfer(msg.value);\r\n           emit Productpurchased(productcount,_product.name,_product.price,msg.sender,true);\r\n       }\r\n       \r\n       function Donsell(uint _iid)public{\r\n                      product memory _product=products[_iid];\r\n                      _product.purchased=true;\r\n                      _product.owner=msg.sender;\r\n                      products[_iid]=_product;\r\n                      emit Dontsell(productcount,_product.name,_product.price,msg.sender,true);\r\n       }\r\n}",
  "sourcePath": "C:\\Users\\Rithik\\Desktop\\blockchain\\src\\contracts\\market.sol",
  "compiler": {
    "name": "solc",
    "version": "0.5.16+commit.9c3226ce.Emscripten.clang"
  },
  "schemaVersion": "3.4.4",
  "updatedAt": "2022-01-25T12:33:55.236Z",
  "devdoc": {
    "methods": {}
  },
  "userdoc": {
    "methods": {}
  }
}